:100000000C9414050C943C050C943C050C943C0594
:100010000C943C050C943C050C943C050C943C055C
:100020000C943C050C943C050C9438080C94A708DF
:100030000C943C050C943C050C943C050C943C053C
:100040000C943C050C943C050C943C050C943C052C
:100050000C943C050C943C050C943C050C94D90A7A
:100060000C943C050C943C050C943C050C943C050C
:100070000C943C050C943C050C943C050C943C05FC
:100080000C943C050C943C050C943C050C943C05EC
:100090000C943C050C943C050C943C050C943C05DC
:1000A0000C943C050C943C050C943C0500000000AD
:1000B000003E5B4F5B3E3E6B4F6B3E1C3E7C3E1CEE
:1000C000183C7E3C181C577D571C1C5E7F5E1C0034
:1000D000183C1800FFE7C3E7FF0018241800FFE7EB
:1000E000DBE7FF30483A060E2629792926407F05AE
:1000F0000507407F05253F5A3CE73C5A7F3E1C1CC4
:1001000008081C1C3E7F14227F22145F5F005F5F83
:1001100006097F017F006689956A6060606060946F
:10012000A2FFA29408047E040810207E2010080874
:100130002A1C08081C2A08081E101010100C1E0C7F
:100140001E0C30383E3830060E3E0E060000000011
:100150000000005F00000007000700147F147F14F8
:10016000242A7F2A1223130864623649562050003D
:1001700008070300001C2241000041221C002A1C29
:100180007F1C2A08083E0808008070300008080814
:100190000808000060600020100804023E51494534
:1001A0003E00427F400072494949462141494D3352
:1001B0001814127F1027454545393C4A49493141B9
:1001C000211109073649494936464949291E000087
:1001D00014000000403400000008142241141414DC
:1001E0001414004122140802015909063E415D59C8
:1001F0004E7C1211127C7F494949363E41414122D1
:100200007F4141413E7F494949417F090909013EFA
:10021000414151737F0808087F00417F4100204021
:10022000413F017F081422417F404040407F021C33
:10023000027F7F0408107F3E4141413E7F0909094A
:10024000063E4151215E7F09192946264949493216
:1002500003017F01033F4040403F1F2040201F3FDC
:100260004038403F63140814630304780403615961
:10027000494D43007F4141410204081020004141A3
:10028000417F04020102044040404040000307084F
:100290000020545478407F2844443838444444284B
:1002A000384444287F385454541800087E090218F2
:1002B000A4A49C787F0804047800447D400020407A
:1002C000403D007F1028440000417F40007C0478BE
:1002D00004787C080404783844444438FC18242406
:1002E0001818242418FC7C08040408485454542486
:1002F00004043F44243C4040207C1C2040201C3C03
:100300004030403C44281028444C9090907C4464F9
:10031000544C44000836410000007700000041368C
:10032000080002010204023C2623263C1EA1A16112
:10033000123A4040207A3854545559215555794144
:100340002154547841215554784020545579400C1B
:100350001E527212395555555939545454593955FC
:100360005454580000457C410002457D420001453F
:100370007C40F0292429F0F0282528F07C545545AC
:10038000002054547C547C0A097F4932494949323F
:100390003248484832324A4848303A4141217A3A54
:1003A00042402078009DA0A07D39444444393D401E
:1003B00040403D3C24FF2424487E4943662B2FFCCB
:1003C0002F2BFF0929F620C0887E09032054547979
:1003D000410000447D413048484A32384040227A4A
:1003E000007A0A0A727D0D19317D2629292F2826C7
:1003F0002929292630484D402038080808080808CF
:100400000808382F10C8ACBA2F102834FA00007B27
:10041000000008142A142222142A1408950022002D
:1004200095AA005500AAAA55AA55AA000000FF00E7
:10043000101010FF00141414FF001010FF00FF1024
:1004400010F010F0141414FC001414F700FF000056
:10045000FF00FF1414F404FC141417101F10101FD5
:10046000101F1414141F00101010F0000000001FC3
:10047000101010101F10101010F010000000FF10CE
:100480001010101010101010FF10000000FF1400CA
:1004900000FF00FF00001F10170000FC04F41414FC
:1004A0001710171414F404F40000FF00F7141414C8
:1004B00014141414F700F7141414171410101F1048
:1004C0001F141414F4141010F010F000001F101F6B
:1004D0000000001F14000000FC140000F010F010D9
:1004E00010FF10FF141414FF141010101F00000050
:1004F00000F010FFFFFFFFFFF0F0F0F0F0FFFFFF54
:100500000000000000FFFF0F0F0F0F0F38444438AA
:10051000447C2A2A3E147E02020606027E027E02E5
:1005200063554941633844443C04407E201E200604
:10053000027E020299A5E7A5991C2A492A1C4C7241
:1005400001724C304A4D4D303048784830BC625AC8
:10055000463D3E494949007E0101017E2A2A2A2A58
:100560002A44445F444440514A444040444A514034
:100570000000FF0103E080FF000008086B6B0836F5
:1005800012362436060F090F060000181800000066
:100590001010003040FF0101001F01011E00191D55
:1005A0001712003C3C3C3C0000000000D5F0E3E3A7
:1005B000A1C881CFD9F1AF200000000000000000E9
:1005C000000000000000000000000000000000002B
:1005D000000000000000000000000000000000001B
:1005E000000000000000000000000000000000000B
:1005F00000000000000000000000000000000000FB
:1006000000000000000000000000000000000000EA
:1006100000000000000000000000000000000000DA
:1006200000000000000000000000000000000000CA
:1006300000000000000000000000000000000000BA
:1006400000000000000000000000000000000000AA
:1006500000FEFEFE0E0E0E0E0E0E000000F0F0F07C
:100660000E0E0E0E0E0E707070000000F0F0F00E08
:100670000E0E0E0E0E000000000000F0F0F00E0E48
:100680000EF0F0F0000000000000FEFEFE8E8E8EE8
:10069000FEFEFE000000000000FEFEFE0E0E0E0E2E
:1006A0000E0E00000000000000000000000000002E
:1006B000000000000000000000000000000000003A
:1006C000000000000000000000000000000000002A
:1006D00000FFFFFF1C1C1C1C1C1C0000000303036C
:1006E0001C1C1C1C1C1CE0E0E0000000FFFFFF00C5
:1006F0000000000000000000E0E0E0FFFFFFE0E09D
:10070000E0FFFFFFE0E0E0000000FFFFFF03030366
:10071000030303000000000000FFFFFF1C1C1C1C63
:100720001C1C000000000000000000000000000091
:1007300000000000000000000000000000000000B9
:1007400000000000000000000000000000000000A9
:10075000003F3F3F38383838383800000007070777
:1007600038383838383807070700000007070738D7
:1007700038383838380000003F3F3F0000000000A4
:10078000000000003F3F3F0000003F3F3F000000EF
:100790000000000000000000003F3F3F38383838BC
:1007A00038380000000000000000000000000000D9
:1007B0000000000000000000000000000000000039
:1007C0000000000000000000000000000000000029
:1007D0000000000000000000000000FCFCCCCCFC8D
:1007E000FC0000FCFCCCCCFCFC00000000FCFC0C81
:1007F0000C0C0C0000F0F00C0C0C0C30300000F075
:10080000F00C0C0C0C3030000000000000C0300870
:10081000040402C222C20204040830C00000000026
:1008200000000000000000000000000000000000C8
:1008300000000000000000000000000000000000B8
:1008400000000000000000000000000000000000A8
:100850000000000000000000000000FFFF0000009A
:10086000000000FFFF03033C3CC0C00000FFFFC3CB
:10087000C3C3C300003030C3C3C3C33C3C0000301B
:1008800030C3C3C3C33C3C00000000000007182075
:1008900040408E8382838E40402018070000000075
:1008A0000000000000000000000000000000000048
:1008B0000000000000000000000000000000000038
:1008C0000000000000000000000000000000000028
:1008D0000000000000000000000000000000000018
:1008E0000000000000000000000000000000000008
:1008F00000000000000000000000000000000000F8
:1009000000000000000000000000000000000000E7
:100910000000000000000000800000000000000057
:1009200000000000000000000000000000000000C7
:1009300000000000000000000000000000000000B7
:1009400000000000000000000000000000000000A7
:100950000000000000000000000000000000000097
:100960000000000000000000000000000000000087
:100970000000000000000000000000000000000077
:100980000000000000000000000000000000000067
:1009900000000000000000001F141C008448300804
:1009A00004000022221E0018201800381008003A07
:1009B000000000000000000000080B00020202001E
:1009C00000090400000102020000052400100105D6
:1009D0002401010104240206052406000107058103
:1009E0000310004009040100020A0000000705028C
:1009F00002400000070583024000000403090412BE
:100A0000010002EF02014041233680000101020390
:100A10000141726475696E6F204C4C430041424C39
:100A2000313330390000230B11241FBECFEFDAE041
:100A3000DEBFCDBF11E0A0E0B1E0EEE0F8E102C022
:100A400005900D92A632B107D9F725E0A6E2B1E0F4
:100A500001C01D92AA39B207E1F715E0C4E1D5E063
:100A600004C02197FE010E94FF0BC331D107C9F7D3
:100A70000E94380B0C94050C0C940000FC01809132
:100A80004905882311F13FB7F89482E08093E9008B
:100A90002091F200822F90E01816190614F481E0DC
:100AA00090E0882339F0289844E640934805409127
:100AB000F1004083222339F02091F200211103C07C
:100AC0002BE62093E8003FBF08958FEF9FEF089536
:100AD0002FB7F89483E08093E9009091E800892F84
:100AE000807295FF04C09091F20080E4891B2FBFB3
:100AF00008958091400581110DC082E080933C05EE
:100B000084E080933D0510923F0510923E0581E000
:100B1000809340058CE395E00895CF93DF931F9277
:100B2000CDB7DEB76983DC01ED91FC910280F381E2
:100B3000E02D41E050E0BE016F5F7F4F09950F90BF
:100B4000DF91CF91089583E08093E9008091F200D6
:100B5000882319F08AE38093E80008950E946805CD
:100B600090E00895CF93DF931F92CDB7DEB7FC01DD
:100B70008485958597FD08C02FEF3FEF3587248743
:100B80000F90DF91CF910895CE0101960E943E050E
:100B9000019719F4898190E0F3CF8FEF9FEFF0CFA9
:100BA0000F931F93CF93DF931F92CDB7DEB78C01C6
:100BB000FC018485958597FF0BC0CE0101960E94AC
:100BC0003E05019771F4898190E0F801958784874B
:100BD000F801848595850F90DF91CF911F910F913A
:100BE00008958FEF9FEFF1CFFC018485958597FDE8
:100BF0000BC09FB7F89482E08093E9008091F200E7
:100C00009FBF90E0019608959FB7F89482E080938B
:100C1000E9008091F2009FBF90E008954091360571
:100C2000509137052091340530913505421753070F
:100C3000B4F49091E8009570E1F39091E80092FD92
:100C400019C08093F1008091360590913705019687
:100C50008F739927892B19F48EEF8093E800809188
:100C600036059091370501969093370580933605A8
:100C700081E0089580E00895EF92FF920F931F9313
:100C8000CF93DF93F82E192FE62E042F81E0860FE5
:100C9000880F0E940E0683E00E940E06CF2DD12FF2
:100CA000EC0EFD2EF11CCE15DF05B9F007FF13C0C9
:100CB000FE0184910E940E06182F80E00E940E060D
:100CC000812321968111EFCFDF91CF911F910F9159
:100CD000FF90EF9008958881EDCF81E0F5CFDF920E
:100CE000EF92FF920F931F93CF93DF93D82E8A0139
:100CF000EB017B01E40EF51ECE15DF0559F0D7FEA2
:100D000012C0FE0184910E940E0621968111F4CF3B
:100D10000FEF1FEFC801DF91CF911F910F91FF904F
:100D2000EF90DF9008958881EECF0F931F93CF93BC
:100D3000DF931F92CDB7DEB782E0898342E450E0B3
:100D400069EB79E080E80E946F060E947905DC017A
:100D500012960D911C910115110589F0D801ED91A4
:100D6000FC910280F381E02DBE016F5F7F4FC801CF
:100D7000099597FD04C0F80100851185ECCF8981A4
:100D80000F90DF91CF911F910F910895615030F036
:100D90002091F100FC0120830196F8CF289884E689
:100DA000809348050895AF92BF92CF92DF92EF9261
:100DB000FF920F931F93CF93DF936C017B018B0105
:100DC000040F151FEB015E01AE18BF08C017D10755
:100DD00059F06991D601ED91FC910190F081E02DDF
:100DE000C6010995892B79F7C501DF91CF911F9134
:100DF0000F91FF90EF90DF90CF90BF90AF9008954C
:100E0000FC010E949B07319728F068517C4F8F4F5F
:100E10009F4FF9CFAB01FC010E949B076417750738
:100E20008E079F07C8F3089585E090E00C940007B3
:100E30008F929F92AF92BF92CF92DF92EF92FF92EA
:100E40000F931F93CF93DF936C017B018A018091F5
:100E50000B01882309F45AC080914905882309F4BD
:100E600055C080913B0580FF05C08091E000826005
:100E70008093E000E801B12C8AEFA82E93E0892E40
:100E80002AE3922E209711F4BB20C9F10E94680535
:100E9000811108C0AA94AA20C9F181E090E00E94C3
:100EA0000007F0CF8C171D0611F00CF08C2F9FB7A8
:100EB000F8948092E9002091E80025FD02C09FBFD0
:100EC000E1CF282F30E0C21BD30BF701815020F077
:100ED00041914093F100FACFE20EF31EBB2021F0C6
:100EE0009092E800B12CEBCF8091E80085FDE7CF30
:100EF0009092E800BB24B394209709F3F3CF5D9858
:100F000084E680933A05101611063CF081E090E0EB
:100F1000F6019383828310E000E0C801DF91CF9156
:100F20001F910F91FF90EF90DF90CF90BF90AF9007
:100F30009F908F900895ACE2B1E02FB7F8947D9127
:100F40008D919C9166B52FBFA89B05C06F3F18F48B
:100F50007F5F8F4F9F4F22E0660F771F881F991F7B
:100F60002A95D1F708956F927F928F929F92AF92B8
:100F7000BF92CF92DF92EF92FF920F931F93CF9386
:100F8000DF9300D01F92CDB7DEB76D3089F0A0900F
:100F90003201B09033016A30F9F4109231011092AD
:100FA00030019501285F3F4F309333012093320188
:100FB00081E090E00F900F900F90DF91CF911F9103
:100FC0000F91FF90EF90DF90CF90BF90AF909F90E8
:100FD0008F907F906F9008950091300110913101B2
:100FE00035E0639FF0011124E455FF4FA801712CF7
:100FF00080E1682E98E0D92EDA0C75E060E0771673
:1010000021F0CF0101966491FC01C50140385105E2
:10101000D0F480349105B8F4A62FA170CA2E9C019B
:1010200071E021FD74E020FD770F22FD7295287F8D
:10103000629ED0011124A40FAC5CBE4F0C90072A15
:10104000C0FE07260C9266950196D812DFCF7394E6
:101050004F5F5F4F86E07812D0CF0A5F1F4F10932B
:10106000310100933001A4CF089590E080E008950D
:101070001F920F920FB60F9211248F939F9380911E
:10108000E1009091E100937F9093E10083FF0FC016
:101090001092E90091E09093EB001092EC0092E343
:1010A0009093ED001092490598E09093F00082FF34
:1010B00022C093E09093E9009091F200992319F0F7
:1010C0009AE39093E80090913A05992341F090912A
:1010D0003A05915090933A05911101C05D9A909113
:1010E0004805992341F09091480591509093480507
:1010F000911101C0289A84FF18C08091E2008E7E71
:1011000081608093E2008091E1008F7E8093E10016
:1011100080913B058E7E806180933B059F918F91EE
:101120000F900FBE0F901F90189580FFF7CF809102
:10113000E2008E7E80618093E2008091E1008E7EED
:101140008093E10080913B058E7E8160E5CF1F9208
:101150000F920FB60F921124CF92DF92EF92FF926F
:101160000F931F932F933F934F935F936F937F93AF
:101170008F939F93AF93BF93EF93FF93CF93DF939F
:10118000CDB7DEB76C97DEBFCDBF1092E90080917E
:10119000E80083FF25C068E0CE0145960E94C606A0
:1011A00082EF8093E8008D8987FF39C09091E80035
:1011B00090FFFCCF982F907609F034C19E894F891B
:1011C000588D2F89F88C911131C0803861F580914C
:1011D00039058093F1001092F1008EEF8093E800C2
:1011E0006C960FB6F894DEBF0FBECDBFDF91CF91E6
:1011F000FF91EF91BF91AF919F918F917F916F91EF
:101200005F914F913F912F911F910F91FF90EF9020
:10121000DF90CF900F900FBE0F901F9018959EEF0C
:101220009093E800C7CF1092F100D5CF913059F4D8
:101230008111D3CF4130510581F6809139058D7FE1
:1012400080933905CACF933049F48111C6CF41301C
:10125000510519F6809139058260F2CF953041F43D
:101260008091E80080FFFCCF20682093E300B5CF99
:10127000963009F0A9C00B8D1C8D22E01092E90078
:101280001092370510923605F2122EC010923505D5
:10129000109234050E9495061F8299E09983FA8284
:1012A00091E09E8390EA98879AEF9987209136057E
:1012B00030913705275F3F4F3C832B838D831092FE
:1012C000E90010923705109236051093350500930A
:1012D000340549E050E0BE016F5F7F4F80E00E941F
:1012E0006F060E94950679CF10933505009334055B
:1012F0000E947905DC0112960D911C9101151105D2
:1013000009F451C1D801ED91FC910480F581E02DE3
:10131000BE016B5E7F4FC8010995009709F03EC181
:10132000F80100851185EACFF3E0FF120EC08F8926
:10133000882309F440C0823061F440E867E08DE121
:101340009AE00E943C06811148CF81E28093EB0035
:1013500047CF813029F440E86BE081E19AE0F1CF9A
:10136000833099F70E947905DC011296ED90FC908C
:101370008E010F5F1F4F6801E114F10479F0D7016E
:10138000ED91FC910680F781E02DB801C701099528
:10139000080F111DF701E084F184EECFD8011C92F3
:1013A000F60101900020E9F73197BF016C197D0922
:1013B00040E0C601C6CF6BEF79E0FB01449150E0FD
:1013C00080E80E946F0609CF973009F4BECF9830AD
:1013D00021F481E08093F10000CF993009F0FDCE37
:1013E000837009F0B2CFEDE0F1E081E031E096E307
:1013F0002191222371F08093E9003093EB00DF010B
:1014000011972C912093EC009093ED008F5F873023
:1014100079F78EE78093EA001092EA008F89809333
:101420004905DBCE8B8D9C8D1092E900109237051B
:10143000109236059093350580933405898D81117E
:1014400092C08E899D89913A49F4813209F07DCF0D
:1014500047E050E064E071E080E0B3CF913209F002
:1014600074CF833269F48F89988DB0E0A0E08093C7
:10147000000190930101A0930201B0930301ADCE4E
:10148000803269F48091E80082FFFCCF67E084E05D
:1014900091E00E94C6068BEF8093E8009ECE8232D8
:1014A00009F09BCE8F8980930B01EEEFFFE78591CA
:1014B00094918B3F9C4D51F1E0E0F8E08091040164
:1014C00090910501A0910601B0910701803B9440E5
:1014D000A105B105F1F480910B0180FD1AC0EE3F2A
:1014E0008AE0F80789F587E797E791838083809101
:1014F00060008093380588E19BE00FB6F894A895CA
:10150000809360000FBE9093600067CEEEEFFAE02C
:10151000D5CF808191818737974709F05ECEA89516
:10152000809160008861809360008091380580938D
:101530006000EE3F2AE0F20789F08091FE0A909168
:10154000FF0A9183808349CE8081918187379807F4
:1015500051F29093FF0A8093FE0AC5CF1092FF0AC2
:101560001092FE0A3ACE0E947905DC0112960D9186
:101570001C910115110509F4E8CED801ED91FC91FB
:101580000190F081E02DBE016B5E7F4FC80109958F
:10159000811123CEF80100851185EBCF18161906AD
:1015A0000CF41BCED2CEF1E0FF12BECE6FEF79E08D
:1015B00004CF0F920FB68F939F93EF93FF93809179
:1015C00027018D5F8D3708F08D5780932701E8E262
:1015D000F1E080818E4F808391819F4F9183828142
:1015E0008F4F828383818F4F8383ECE2F1E0808190
:1015F0008F5F808381818F4F818382818F4F828330
:1016000083818F4F83838FB18F6066991C9B88275E
:101610008F3681F480912601981B963068F0E0E0C7
:10162000F8E087E78083818388E180936000F0930E
:101630006000FFCF90932601FF91EF919F918F91D2
:101640000FBE0F901895EAE4F5E01382128288EE3F
:1016500093E0A0E0B0E084839583A683B78387E11D
:1016600091E0918380838FEF9FEF95878487089522
:10167000789483E084BD83E085BD81E080936E0033
:10168000E1E8F0E083E08083E0E881E08083E1E965
:1016900083E08083E0E981E08083E1EC87E0808380
:1016A000E3EC81E08083E0EC82E08083E2EC81E0A7
:1016B0008083EAE787E08083806880831092490511
:1016C0001092390510923B058091D700816080937C
:1016D000D70080EA8093D80089B5806189BD89B53B
:1016E000826089BD09B400FEFDCF81E090E00E94D8
:1016F00000078091D8008F7C80618093D800809112
:10170000E000807F8093E0008091E1008E7E8093F6
:10171000E1008DE08093E200559A209A81EC80935D
:101720007C0081EF85B987EE84B982E38BB982EFC3
:101730008AB9769A6E9880EF81BB10BA80E58CBD2D
:1017400081E08DBD0E9414075F9A0E9414075C9887
:10175000ECEAF5E085918EBD00000DB407FEFDCFEB
:10176000E93BC1F75C9A81E88093640081E0809353
:10177000650090E0E4E3F1E091119FEF8FEF91932A
:101780009193919391938150D0F7109233011092DD
:101790003201109231011092300190E080E0DC01C2
:1017A000AC5CBE4F30E020E0BC0167547A4FFB01D7
:1017B000E20FF31F4491EC91E42BED932F5F3F4F29
:1017C00020383105A1F780589F4F811524E09207FA
:1017D00031F7E4E3F1E080E0A0E0B8E000800EBC87
:1017E0008111012C1197A0FDFDCF0192B9F70DB425
:1017F000C0E0D0E02097F1F30E940000FBCFEE0F95
:0E180000FF1F0590F491E02D0994F894FFCF9E
:10180E00FFFFFFFF00E100000000000000C180812B
:10181E00000000000000008D051807AE05A305F4BA
:06182E0005B205D0050023
:00000001FF
