:100000000C9412050C943A050C943A050C943A059C
:100010000C943A050C943A050C943A050C943A0564
:100020000C943A050C943A050C94D3080C944209AC
:100030000C943A050C943A050C943A050C943A0544
:100040000C943A050C943A050C943A050C943A0534
:100050000C943A050C943A050C943A050C94740BE4
:100060000C943A050C943A050C943A050C943A0514
:100070000C943A050C943A050C943A050C943A0504
:100080000C943A050C943A050C943A050C943A05F4
:100090000C943A050C943A050C943A050C943A05E4
:1000A0000C943A050C943A050C943A0500000000B3
:1000B000003E5B4F5B3E3E6B4F6B3E1C3E7C3E1CEE
:1000C000183C7E3C181C577D571C1C5E7F5E1C0034
:1000D000183C1800FFE7C3E7FF0018241800FFE7EB
:1000E000DBE7FF30483A060E2629792926407F05AE
:1000F0000507407F05253F5A3CE73C5A7F3E1C1CC4
:1001000008081C1C3E7F14227F22145F5F005F5F83
:1001100006097F017F006689956A6060606060946F
:10012000A2FFA29408047E040810207E2010080874
:100130002A1C08081C2A08081E101010100C1E0C7F
:100140001E0C30383E3830060E3E0E060000000011
:100150000000005F00000007000700147F147F14F8
:10016000242A7F2A1223130864623649562050003D
:1001700008070300001C2241000041221C002A1C29
:100180007F1C2A08083E0808008070300008080814
:100190000808000060600020100804023E51494534
:1001A0003E00427F400072494949462141494D3352
:1001B0001814127F1027454545393C4A49493141B9
:1001C000211109073649494936464949291E000087
:1001D00014000000403400000008142241141414DC
:1001E0001414004122140802015909063E415D59C8
:1001F0004E7C1211127C7F494949363E41414122D1
:100200007F4141413E7F494949417F090909013EFA
:10021000414151737F0808087F00417F4100204021
:10022000413F017F081422417F404040407F021C33
:10023000027F7F0408107F3E4141413E7F0909094A
:10024000063E4151215E7F09192946264949493216
:1002500003017F01033F4040403F1F2040201F3FDC
:100260004038403F63140814630304780403615961
:10027000494D43007F4141410204081020004141A3
:10028000417F04020102044040404040000307084F
:100290000020545478407F2844443838444444284B
:1002A000384444287F385454541800087E090218F2
:1002B000A4A49C787F0804047800447D400020407A
:1002C000403D007F1028440000417F40007C0478BE
:1002D00004787C080404783844444438FC18242406
:1002E0001818242418FC7C08040408485454542486
:1002F00004043F44243C4040207C1C2040201C3C03
:100300004030403C44281028444C9090907C4464F9
:10031000544C44000836410000007700000041368C
:10032000080002010204023C2623263C1EA1A16112
:10033000123A4040207A3854545559215555794144
:100340002154547841215554784020545579400C1B
:100350001E527212395555555939545454593955FC
:100360005454580000457C410002457D420001453F
:100370007C40F0292429F0F0282528F07C545545AC
:10038000002054547C547C0A097F4932494949323F
:100390003248484832324A4848303A4141217A3A54
:1003A00042402078009DA0A07D39444444393D401E
:1003B00040403D3C24FF2424487E4943662B2FFCCB
:1003C0002F2BFF0929F620C0887E09032054547979
:1003D000410000447D413048484A32384040227A4A
:1003E000007A0A0A727D0D19317D2629292F2826C7
:1003F0002929292630484D402038080808080808CF
:100400000808382F10C8ACBA2F102834FA00007B27
:10041000000008142A142222142A1408950022002D
:1004200095AA005500AAAA55AA55AA000000FF00E7
:10043000101010FF00141414FF001010FF00FF1024
:1004400010F010F0141414FC001414F700FF000056
:10045000FF00FF1414F404FC141417101F10101FD5
:10046000101F1414141F00101010F0000000001FC3
:10047000101010101F10101010F010000000FF10CE
:100480001010101010101010FF10000000FF1400CA
:1004900000FF00FF00001F10170000FC04F41414FC
:1004A0001710171414F404F40000FF00F7141414C8
:1004B00014141414F700F7141414171410101F1048
:1004C0001F141414F4141010F010F000001F101F6B
:1004D0000000001F14000000FC140000F010F010D9
:1004E00010FF10FF141414FF141010101F00000050
:1004F00000F010FFFFFFFFFFF0F0F0F0F0FFFFFF54
:100500000000000000FFFF0F0F0F0F0F38444438AA
:10051000447C2A2A3E147E02020606027E027E02E5
:1005200063554941633844443C04407E201E200604
:10053000027E020299A5E7A5991C2A492A1C4C7241
:1005400001724C304A4D4D303048784830BC625AC8
:10055000463D3E494949007E0101017E2A2A2A2A58
:100560002A44445F444440514A444040444A514034
:100570000000FF0103E080FF000008086B6B0836F5
:1005800012362436060F090F060000181800000066
:100590001010003040FF0101001F01011E00191D55
:1005A0001712003C3C3C3C00000000008D14A1C828
:1005B00081CFD9F102AF0000000000000000000070
:1005C000000000000000000000000000000000002B
:1005D000000000000000000000000000000000001B
:1005E000000000000000000000000000000000000B
:1005F00000000000000000000000000000000000FB
:1006000000000000000000000000000000000000EA
:1006100000000000000000000000000000000000DA
:1006200000000000000000000000000000000000CA
:1006300000000000000000000000000000000000BA
:100640000000000000000000000000000000FEFEAE
:10065000FE0E0E0E0E0E0E000000F0F0F00E0E0E4E
:100660000E0E0E707070000000F0F0F00E0E0E0E08
:100670000E0E000000000000F0F0F00E0E0EF0F084
:10068000F0000000000000FEFEFE8E8E8EFEFEFEDC
:10069000000000000000FEFEFE0E0E0E0E0E0E000C
:1006A000000000000000000000000000000000004A
:1006B000000000000000000000000000000000003A
:1006C0000000000000000000000000000000FFFF2C
:1006D000FF1C1C1C1C1C1C0000000303031C1C1C16
:1006E0001C1C1CE0E0E0000000FFFFFF0000000019
:1006F0000000000000E0E0E0FFFFFFE0E0E0FFFFBF
:10070000FFE0E0E0000000FFFFFF0303030303033B
:10071000000000000000FFFFFF1C1C1C1C1C1C0034
:1007200000000000000000000000000000000000C9
:1007300000000000000000000000000000000000B9
:1007400000000000000000000000000000003F3F2B
:100750003F3838383838380000000707073838384D
:1007600038383807070700000007070738383838D7
:1007700038380000003F3F3F00000000000000004C
:10078000003F3F3F0000003F3F3F000000000000EF
:100790000000000000003F3F3F383838383838004C
:1007A0000000000000000000000000000000000049
:1007B0000000000000000000000000000000000039
:1007C0000000000000000000000000000000000029
:1007D0000000000000000000FCFCCCCCFCFC000091
:1007E000FCFCCCCCFCFC00000000FCFC0C0C0C0C59
:1007F0000000F0F00C0C0C0C30300000F0F00C0C91
:100800000C0C3030000000000000C030080404026E
:10081000C222C20204040830C00000000000000030
:1008200000000000000000000000000000000000C8
:1008300000000000000000000000000000000000B8
:1008400000000000000000000000000000000000A8
:100850000000000000000000FFFF0000000000009A
:10086000FFFF03033C3CC0C00000FFFFC3C3C3C382
:1008700000003030C3C3C3C33C3C00003030C3C3AE
:10088000C3C33C3C00000000000007182040408E1D
:100890008382838E40402018070000000000000083
:1008A0000000000000000000000000000000000048
:1008B0000000000000000000000000000000000038
:1008C0000000000000000000000000000000000028
:1008D0000000000000000000000000000000000018
:1008E0000000000000000000000000000000000008
:1008F00000000000000000000000000000000000F8
:1009000000000000000000000000000000000000E7
:100910000000000000800000000000000000000057
:1009200000000000000000000000000000000000C7
:1009300000000000000000000000000000000000B7
:1009400000000000000000000000000000000000A7
:100950000000000000000000000000000000000097
:100960000000000000000000000000000000000087
:100970000000000000000000000000000000000077
:100980000000000000000000000000000000000067
:1009900000000000001F141C008448300804000000
:1009A00022221E0018201800381008003A0000000B
:1009B000000000000000080B000202020000090411
:1009C00000000102020000052400100105240101BD
:1009D0000104240206052406000107058103100016
:1009E0004009040100020A0000000705020240005D
:1009F00000070583024000000403090412010002FD
:100A0000EF020140412336800001010203014172DF
:100A10006475696E6F204C4C430041424C3131305B
:100A20003600BE0B11241FBECFEFDAE0DEBFCDBF14
:100A300011E0A0E0B1E0ECE8FCE102C005900D920D
:100A4000A037B107D9F725E0A0E7B1E001C01D92BA
:100A5000A73FB207E1F715E0C2E1D5E004C0219756
:100A6000FE010E943E0EC131D107C9F70E94D30B8F
:100A70000C94440E0C94000090E0E7EAF1E0911130
:100A80009FEF8FEF91939193919391938150D0F732
:100A90000895CF93DF9347EA51E0EC01DC5FDA0180
:100AA00030E020E0F901E80FF91F6491EC91E62BAA
:100AB000ED932F5F3F4F20383105A1F740585F4F2E
:100AC00080589F4FC817D90751F7DF91CF910895EC
:100AD000E7EAF1E080E030EB20E146E05C983EBDE3
:100AE0004A95F1F72EBD20E8239507C04491408137
:100AF0005C9A4EBD8111412D419344912A95B1F7E5
:100B00003395383B49F744910DB40895FC01809129
:100B1000A601882311F13FB7F89482E08093E900A1
:100B20002091F200822F90E01816190614F481E04B
:100B300090E0882339F0289844E64093A50140913D
:100B4000F1004083222339F02091F200211103C0EB
:100B50002BE62093E8003FBF08958FEF9FEF0895A5
:100B60002FB7F89483E08093E9009091E800892FF3
:100B7000807295FF04C09091F20080E4891B2FBF22
:100B8000089580919D0181110DC082E080939901AB
:100B900084E080939A0110929C0110929B0181E065
:100BA00080939D0189E991E00895CF93DF931F928F
:100BB000CDB7DEB76983DC01ED91FC910280F38152
:100BC000E02D41E050E0BE016F5F7F4F09950F902F
:100BD000DF91CF91089583E08093E9008091F20046
:100BE000882319F08AE38093E80008950E94B005F5
:100BF00090E00895CF93DF931F92CDB7DEB7FC014D
:100C00008485958597FD08C02FEF3FEF35872487B2
:100C10000F90DF91CF910895CE0101960E94860535
:100C2000019719F4898190E0F3CF8FEF9FEFF0CF18
:100C30000F931F93CF93DF931F92CDB7DEB78C0135
:100C4000FC018485958597FF0BC0CE0101960E941B
:100C50008605019771F4898190E0F8019587848772
:100C6000F801848595850F90DF91CF911F910F91A9
:100C700008958FEF9FEFF1CFFC018485958597FD57
:100C80000BC09FB7F89482E08093E9008091F20056
:100C90009FBF90E0019608959FB7F89482E08093FB
:100CA000E9008091F2009FBF90E008954091930188
:100CB0005091940120919101309192014217530774
:100CC000B4F49091E8009570E1F39091E80092FD02
:100CD00019C08093F1008091930190919401019645
:100CE0008F739927892B19F48EEF8093E8008091F8
:100CF00093019091940101969093940180939301B4
:100D000081E0089580E00895EF92FF920F931F9382
:100D1000CF93DF93F82E192FE62E042F81E0860F54
:100D2000880F0E94560683E00E945606CF2DD12FD1
:100D3000EC0EFD2EF11CCE15DF05B9F007FF13C038
:100D4000FE0184910E945606182F80E00E945606EC
:100D5000812321968111EFCFDF91CF911F910F91C8
:100D6000FF90EF9008958881EDCF81E0F5CFDF927D
:100D7000EF92FF920F931F93CF93DF93D82E8A01A8
:100D8000EB017B01E40EF51ECE15DF0559F0D7FE11
:100D900012C0FE0184910E94560621968111F4CF63
:100DA0000FEF1FEFC801DF91CF911F910F91FF90BF
:100DB000EF90DF9008958881EECF0F931F93CF932C
:100DC000DF931F92CDB7DEB782E0898342E450E023
:100DD00066EB79E080E80E94B7060E94C105DC015D
:100DE00012960D911C910115110589F0D801ED9114
:100DF000FC910280F381E02DBE016F5F7F4FC8013F
:100E0000099597FD04C0F80100851185ECCF898113
:100E10000F90DF91CF911F910F910895615030F0A5
:100E20002091F100FC0120830196F8CF289884E6F8
:100E30008093A5010895AF92BF92CF92DF92EF9277
:100E4000FF920F931F93CF93DF936C017B018B0174
:100E5000040F151FEB015E01AE18BF08C017D107C4
:100E600059F06991D601ED91FC910190F081E02D4E
:100E7000C6010995892B79F7C501DF91CF911F91A3
:100E80000F91FF90EF90DF90CF90BF90AF900895BB
:100E9000FC010E94E307319728F068517C4F8F4F87
:100EA0009F4FF9CFAB01FC010E94E3076417750760
:100EB0008E079F07C8F3089585E090E00C944807DB
:100EC0008F929F92AF92BF92CF92DF92EF92FF925A
:100ED0000F931F93CF93DF936C017B018A01809165
:100EE0000F01882309F45AC08091A601882309F4D0
:100EF00055C08091980180FF05C08091E00082601C
:100F00008093E000E801B12C8AEFA82E93E0892EAF
:100F10002AE3922E209711F4BB20C9F10E94B0055C
:100F2000811108C0AA94AA20C9F181E090E00E9432
:100F30004807F0CF8C171D0611F00CF08C2F9FB7CF
:100F4000F8948092E9002091E80025FD02C09FBF3F
:100F5000E1CF282F30E0C21BD30BF701815020F0E6
:100F600041914093F100FACFE20EF31EBB2021F035
:100F70009092E800B12CEBCF8091E80085FDE7CF9F
:100F80009092E800BB24B394209709F3F3CF5D98C7
:100F900084E680939701101611063CF081E090E002
:100FA000F6019383828310E000E0C801DF91CF91C6
:100FB0001F910F91FF90EF90DF90CF90BF90AF9077
:100FC0009F908F900895A2E7B1E02FB7F8947D919C
:100FD0008D919C9166B52FBFA89B05C06F3F18F4FB
:100FE0007F5F8F4F9F4F22E0660F771F881F991FEB
:100FF0002A95D1F708958FB18095807F669B886090
:101000001C9B846008956F927F928F929F92AF9203
:10101000BF92CF92DF92EF92FF920F931F93CF93E5
:10102000DF9300D01F92CDB7DEB76D3089F0A0906E
:101030008201B09083016A30F9F41092810110921C
:1010400080019501285F3F4F3093830120938201F7
:1010500081E090E00F900F900F90DF91CF911F9162
:101060000F91FF90EF90DF90CF90BF90AF909F9047
:101070008F907F906F900895009180011091810171
:1010800035E0639FF0011124E455FF4FA801712C56
:1010900080E1682E98E0D92EDA0C75E060E07716D2
:1010A00021F0CF0101966491FC01C5014038510542
:1010B000D0F480349105B8F4A62FA170CA2E9C01FB
:1010C00071E021FD74E020FD770F22FD7295287FED
:1010D000629ED0011124A40FA955BE4F0C90072A7F
:1010E000C0FE07260C9266950196D812DFCF739446
:1010F0004F5F5F4F86E07812D0CF0A5F1F4F10938B
:10110000810100938001A4CF6038710518F5403447
:10111000510500F598E0899FF0011124CA0123E0F0
:10112000959587952A95E1F7E80FF91FF695FE2F1B
:10113000EE27F795E795E60FF71FE654FA4F8491EF
:1011400090E04770552702C0959587954A95E2F73C
:101150008170089580E00895FF920F931F93CF93BD
:10116000DF93F82EEB018A01085F1F4F6F5F7F4FFF
:10117000A8010E94840881110CC0BE016A5F7F4FE4
:10118000A8018F2DDF91CF911F910F91FF900C94AB
:101190008408DF91CF911F910F91FF9008950895DA
:1011A00090E080E008951F920F920FB60F921124E5
:1011B0008F939F938091E1009091E100937F9093B2
:1011C000E10083FF0FC01092E90091E09093EB00E3
:1011D0001092EC0092E39093ED001092A60198E03B
:1011E0009093F00082FF22C093E09093E9009091E9
:1011F000F200992319F09AE39093E80090919701F7
:10120000992341F0909197019150909397019111FA
:1012100001C05D9A9091A501992341F09091A5019B
:1012200091509093A501911101C0289A84FF18C094
:101230008091E2008E7E81608093E2008091E100E7
:101240008F7E8093E100809198018E7E80618093F3
:1012500098019F918F910F900FBE0F901F9018953E
:1012600080FFF7CF8091E2008E7E80618093E20064
:101270008091E1008E7E8093E100809198018E7EC6
:101280008160E5CF1F920F920FB60F921124CF927B
:10129000DF92EF92FF920F931F932F933F934F9301
:1012A0005F936F937F938F939F93AF93BF93EF93CE
:1012B000FF93CF93DF93CDB7DEB76C97DEBFCDBF83
:1012C0001092E9008091E80083FF25C068E0CE011C
:1012D00045960E940E0782EF8093E8008D8987FF74
:1012E00039C09091E80090FFFCCF982F907609F0DC
:1012F00034C19E894F89588D2F89F88C911131C046
:10130000803861F5809196018093F1001092F10090
:101310008EEF8093E8006C960FB6F894DEBF0FBE98
:10132000CDBFDF91CF91FF91EF91BF91AF919F9191
:101330008F917F916F915F914F913F912F911F916D
:101340000F91FF90EF90DF90CF900F900FBE0F9016
:101350001F9018959EEF9093E800C7CF1092F10070
:10136000D5CF913059F48111D3CF4130510581F659
:10137000809196018D7F80939601CACF933049F476
:101380008111C6CF4130510519F6809196018260D6
:10139000F2CF953041F48091E80080FFFCCF2068C7
:1013A0002093E300B5CF963009F0A9C00B8D1C8DBA
:1013B00022E01092E9001092940110929301F2122F
:1013C0002EC010929201109291010E94DD061F82A0
:1013D00099E09983FA8291E09E8390EA98879AEF48
:1013E00099872091930130919401275F3F4F3C836F
:1013F0002B838D831092E900109294011092930137
:10140000109392010093910149E050E0BE016F5F9B
:101410007F4F80E00E94B7060E94DD0679CF1093CF
:101420009201009391010E94C105DC0112960D9179
:101430001C910115110509F451C1D801ED91FC91E0
:101440000480F581E02DBE016B5E7F4FC8010995D8
:10145000009709F03EC1F80100851185EACFF3E05D
:10146000FF120EC08F89882309F440C0823061F4D6
:1014700040E867E08AE19AE00E948406811148CF43
:1014800081E28093EB0047CF813029F440E86BE0A4
:101490008EE09AE0F1CF833099F70E94C105DC011C
:1014A0001296ED90FC908E010F5F1F4F6801E114C2
:1014B000F10479F0D701ED91FC910680F781E02DE0
:1014C000B801C7010995080F111DF701E084F184E7
:1014D000EECFD8011C92F60101900020E9F7319778
:1014E000BF016C197D0940E0C601C6CF68EF79E005
:1014F000FB01449150E080E80E94B70609CF973085
:1015000009F4BECF983021F481E08093F10000CF40
:10151000993009F0FDCE837009F0B2CFE7E5F1E034
:1015200081E031E096E32191222371F08093E9007C
:101530003093EB00DF0111972C912093EC009093F6
:10154000ED008F5F873079F78EE78093EA00109285
:10155000EA008F898093A601DBCE8B8D9C8D109243
:10156000E90010929401109293019093920180935C
:101570009101898D811192C08E899D89913A49F49A
:10158000813209F07DCF47E050E068E071E080E013
:10159000B3CF913209F074CF833269F48F89988D7B
:1015A000B0E0A0E08093040190930501A0930601B0
:1015B000B0930701ADCE803269F48091E80082FFDC
:1015C000FCCF67E088E091E00E940E078BEF8093EC
:1015D000E8009ECE823209F09BCE8F8980930F0166
:1015E000EEEFFFE7859194918B3F9C4D51F1E0E048
:1015F000F8E08091080190910901A0910A01B09151
:101600000B01803B9440A105B105F1F480910F01DD
:1016100080FD1AC0EE3F8AE0F80789F587E797E773
:1016200091838083809160008093950188E19BE0A5
:101630000FB6F894A895809360000FBE9093600059
:1016400067CEEEEFFAE0D5CF80819181873797475B
:1016500009F05ECEA895809160008861809360005B
:101660008091950180936000EE3F2AE0F20789F0B7
:101670008091FE0A9091FF0A9183808349CE8081F8
:1016800091818737980751F29093FF0A8093FE0A61
:10169000C5CF1092FF0A1092FE0A3ACE0E94C105F1
:1016A000DC0112960D911C910115110509F4E8CE8B
:1016B000D801ED91FC910190F081E02DBE016B5EAF
:1016C0007F4FC8010995811123CEF801008511854E
:1016D000EBCF181619060CF41BCED2CEF1E0FF1298
:1016E000BECE6CEF79E004CF0F920FB68F939F932D
:1016F000EF93FF93809171018D5F8D3708F08D57C7
:1017000080937101EAE7F1E080818E4F80839181BF
:101710009F4F918382818F4F828383818F4F8383F9
:10172000E2E7F1E080818F5F808381818F4F818349
:1017300082818F4F828383818F4F83838FB18F60AC
:1017400066991C9B88278F3681F480917001981BC5
:10175000963068F0E0E0F8E087E78083818388E1F5
:1017600080936000F0936000FFCF90937001FF9131
:10177000EF919F918F910FBE0F901895E7EAF5E0DA
:101780001382128288EE93E0A0E0B0E08483958318
:10179000A683B78381E691E0918380838FEF9FEFEB
:1017A000958784870895789483E084BD83E085BD20
:1017B00081E080936E00E1E8F0E083E08083E0E880
:1017C00081E08083E1E983E08083E0E981E0808358
:1017D000E1EC87E08083E3EC81E08083E0EC82E071
:1017E0008083E2EC81E08083EAE787E080838068A1
:1017F00080831092A6011092960110929801809118
:10180000D70081608093D70080EA8093D80089B5A3
:10181000806189BD89B5826089BD09B400FEFDCFB4
:1018200081E090E00E9448078091D8008F7C806121
:101830008093D8008091E000807F8093E0008091C9
:10184000E1008E7E8093E1008DE08093E200559A66
:10185000209A81EC80937C0081EF85B987EE84B972
:1018600082E38BB982EF8AB9769A6E9880EF81BB5A
:1018700010BA80E58CBD81E08DBD0E945C075F9A47
:101880000E945C075C98ECEAF5E085918EBD000053
:101890000DB407FEFDCFE63BC1F75C9A81E880936B
:1018A000640081E0809365000E943C0510928301F2
:1018B00010928201109281011092800122242394BF
:1018C00096E7692E91E0792E20E0422E20E0522EFC
:1018D0003324339433E0E32EF12C42E0842E912C18
:1018E00080917801882341F01092780141145104CD
:1018F000B9F30E940000F4CF80917A0190917901B0
:10190000282F291B203130F42F3081F323BE8895F6
:1019100013BEECCF3092780180937901F30180817E
:101920009181019680839183D0917E01D0937F0134
:101930000E94FB07C82F80937E0180919001811146
:101940000DC088EB95E00E9449050E946805D3FD13
:10195000CDCFC3FFCBCF30929001C8CF813009F0FB
:10196000C5CF80918E0190918F01019682309105B3
:101970000CF044C190938F0180938E010E94FB076D
:10198000C0910201D091030185FF2CC0009100019C
:101990001091010168018FEFC81AD80AAE014F5F9C
:1019A0005F4FB60181E00E94840881111BC0AE0127
:1019B000495F5F4FB60181E00E948408811112C027
:1019C00080918E0190918F01892B61F40150110952
:1019D000109301010093000181E090E090938D014C
:1019E00080938C010E94FB0786FF2CC000910001B0
:1019F00010910101680126E0C20ED11CAE014F5FBB
:101A00005F4FB60181E00E94840881111BC0AE01C6
:101A1000495F5F4FB60181E00E948408811112C0C6
:101A200080918E0190918F01892B61F40F5F1F4F80
:101A3000109301010093000181E090E090938D01EB
:101A400080938C010E94FB0782FF0FC080918A0166
:101A500090918B010297029740F090928B018092B7
:101A60008A0110928901109288010E94FB0786FD6D
:101A700008C00E94FB0785FD04C010928D011092E2
:101A80008C0180918A0190918B01029709F043C0EB
:101A9000809188019091890101968332910509F422
:101AA000B2C09093890180938801E0918801F09100
:101AB0008901EE0FFF1FE05FFE4F80819181C80F0B
:101AC000D91FD0930301C09302010091000110912E
:101AD0000101B8016F5F7F4FAE0181E00E94840871
:101AE000882309F499C01092890110928801F0921C
:101AF0008B01E0928A01AE01B80181E090E00E9482
:101B0000AC08882341F0109289011092880110924C
:101B10008B0110928A010091020110910301C09182
:101B20000001D0910101A801BE0181E090E00E9476
:101B3000AC0881110AC080918A0190918B010297B3
:101B400021F0F0928B01E0928A0180918A019091BC
:101B50008B01039781F4A801485F5F4FBE016D5F61
:101B60007F4F81E00E948408882309F45FC01092AF
:101B70008B0110928A015E018FEFA81AB80A26968F
:101B80000091020110910301680127E0C20ED11CEF
:101B9000A601B50181E00E94840881114EC0A60112
:101BA000BE0181E00E948408811147C080918601B6
:101BB000909187010196853091050CF049C0909372
:101BC00087018093860180918C0190918D01892BF2
:101BD00021F410928501109284010E943C0510921C
:101BE00083011092820110928101109280018AEB90
:101BF00099E00E9449050E94680578CE10928F01F5
:101C000010928E01BBCE1092890110928801109221
:101C10008B0110928A0149CFAE01B8016A5F7F4FF4
:101C200081E00E94840881115ECF65CF0F5F1F4F56
:101C300010930301009302019ECF015011091093EC
:101C400003010093020110928B0110928A0198CF38
:101C500010928701109286018091840190918501F4
:101C60000196823091052CF4909385018093840134
:101C7000AACF1092850110928401A5CFEE0FFF1F0D
:0C1C80000590F491E02D0994F894FFCF3A
:101C8C000C003000FFFFFFFF00E10000000000002F
:101C9C000000FEFFFEFFFEFFFEFFFEFFFEFFFEFF4D
:101CAC00FFFFFFFFFFFFFFFFFFFFFFFFFFFF000036
:101CBC000000000000000000000001000100010015
:101CCC0001000100010001000200020002000200FC
:101CDC0002000200020000C1808100000000000030
:101CEC0000D5056007F605EB053C06FA051806005D
:00000001FF
